:107C00001F92CDB7DEB7112414B714BE80E090E008
:107C100009D1813029F4812F8D7011F0812FFCD092
:107C200085E08093810082E08093C00088E18093AA
:107C3000C10086E08093C20083E38093C40088E2A1
:107C4000C9D0219A229A26E088E19EEF31E09093F4
:107C500085008093840036BBB09BFECF1A9AA8950E
:107C60002150A9F7812C912CFF24F39493E0E92E65
:107C700025E0D22E31E1C32E8FE99FE00197F1F785
:107C800000C000002998EFECF7E03197F1F700C051
:107C9000000094D08134A9F491D08983A1D0898146
:107CA000823851F0813811F487E009C0823911F42B
:107CB00081E005C0833911F482E001C083E077D010
:107CC00073C0823411F484E103C0853419F485E073
:107CD0009CD06AC0853541F471D0882E6FD0912C2C
:107CE000982A880C991C5FC0863521F484E08DD0D9
:107CF00080E0E5CF843609F036C060D05FD0B82E82
:107D00005DD0A82E00E011E059D0F80181938F01D9
:107D1000BE12FACF65D0F5E4AF1201C0FFCFF40177
:107D2000E7BEE89507B600FCFDCFB401A0E0B1E0E6
:107D30002C911296AD0141505109FA01808130E039
:107D4000382BFB010901F7BEE89511246E5F7F4FC8
:107D5000BA12EECFF401D7BEE89507B600FCFDCF0E
:107D6000C7BEE89521C0843769F428D027D0B82E43
:107D700025D036D08401F80185918F0118D0BA94AE
:107D8000D1F712C0853739F42BD08EE110D085E9B8
:107D90000ED08FE094CF813531F461E080E090E047
:107DA00049D088E017D01CD080E101D065CF9091F8
:107DB000C00095FFFCCF8093C60008958091C0005D
:107DC00087FFFCCF8091C00084FD01C0A895809101
:107DD000C6000895E0E6F0E098E19083808308957E
:107DE000EDDF803219F088E0F5DFFFCF8FE19EE410
:107DF0000197F1F700C00000299A8FEC97E00197F6
:107E0000F1F700C0000084E1D2CFCF93C82FD6DFB6
:107E1000C150E9F7CF91E4CF282E80E0DBDFE0E02E
:107E2000FF270994F999FECF92BD81BDF89A992751
:107E300080B50895262FF999FECF1FBA92BD81BD56
:107E400020BD0FB6F894FA9AF99A0FBE01960895DC
:027FFE00020778
:0400000300007C007D
:00000001FF
